:100000000C94E2060C9429070C9429070C942907F8
:100010000C9429070C9429070C9429070C942907A0
:100020000C9429070C9429070C946D270C944028F4
:100030000C94F41D0C9429070C9429070C9429079F
:100040000C9429070C9429070C9429070C94290770
:100050000C9429070C94551E0C9429070C9429071D
:100060000C9429070C9429070C9429070C94290750
:100070000C9429070C9429070C9429070C94290740
:100080000C9429070C9429070C9429070C94290730
:100090000C9429070C9429070C9429070C94290720
:1000A0000C9429070C9429070C94290729001E0099
:1000B0001F0020002100220023002400250026002C
:1000C00027002D002E00310035002B0014001A00EF
:1000D0000800150017001C0018000C001200130087
:1000E0002F0030002A000000E00004001600070086
:1000F00009000A000B000D000E000F003300340051
:10010000000028000000E10000001D001B000600A8
:1001100019000500110010003600370038000000FB
:10012000520001510351E300E2002C0000000000E6
:10013000000029422C00E6005000000051004F0052
:100140000000A5003A003B003C003D003E003F009F
:1001500040004100420043004400450049004C007B
:1001600039000100010001000070010001000100E0
:10017000460047004800520001009C0000000100BA
:10018000AA00A900A80001000100550054004A007F
:100190004B0050004F000000010000000100000073
:1001A00001000100B20001000100570056004D009F
:1001B0004E0051000000A9000100010001000100F3
:1001C000010000000000000001000100AE00AC00D2
:1001D0000000AA00AB0000000100010001000100C6
:1001E0000100010001000100010001000100010007
:1001F0000100010001000100010001002F02300296
:100200000100010031023100010001000100010084
:100210000100000001000100010026022702010088
:100220005000510052004F00010001000000010089
:10023000000001000000010001002F00300001005B
:10024000350035020100010001000000010001003D
:100250000100010001000100000000000000010099
:100260000100010001000000010001000000010088
:100270000100010001000100010001005F006000B9
:1002800061000100010001000100010053000100B4
:10029000010001000100010001005C005D005E0042
:1002A0000100010001000100000001000100010047
:1002B000010001005500540059005A005B00010084
:1002C0000100000001000000010000000100010029
:1002D0000100010057005600620063005800010051
:1002E0000000010001000100010001000100000008
:1002F00000000000010001000100010000000100F9
:1003000001000000010001000100010001000100E6
:1003100001000100010001000100010001000100D5
:1003200001000100010001000100010001000100C5
:1003300001000100010001000100010001000000B6
:1003400001000100010001000100010001000100A5
:100350000100010001000100000001000000010097
:100360000000010001000100010001000100010086
:100370000100010001000000010001000100010076
:100380000100010000000000000001000100010068
:100390000100000001000100000001000100010057
:1003A0000100010001000100010001000100010045
:1003B0000100010001000100010001000100010035
:1003C0000100010001000100010001000100010025
:1003D0000100010000000100010001000100010016
:1003E0000100010001000100010001000100000006
:1003F00001000000010000000100010001000100F7
:1004000001000100010001000100010000000100E5
:1004100001000100010001000100000000000000D7
:1004200001000100010001000000010001000000C6
:1004300001000100010001000100010001000100B4
:1004400001000100010001000100010001000100A4
:100450000100010001000100010001000100010094
:100460000100010001000100010000000100010085
:100470000100010001000100010001000100010074
:100480000100010000000100000001000000010067
:100490000100010001000100010001000100010054
:1004A0000100000001000100010001000100010045
:1004B0000000000000000100010001000100000038
:1004C0000100010000000100010001000100010025
:1004D0000100010001000100010001000100010014
:1004E0000100010001000100010001000100010004
:1004F00001000100010001000100010001000100F4
:1005000000000100010001000100010001000100E4
:1005100001000100010001000100000001000000D5
:1005200001000000010001000100010001000100C4
:1005300001000100010001000000010001000100B4
:1005400001000100010000000000000001000100A6
:100550000100010000000100010000000100010095
:100560000100010001000100010001000100010083
:100570000100010001000100010001000100010073
:100580000100010001000100010001000100010063
:100590000100010001000000010001000100010054
:1005A0000100010001000100010001000100010043
:1005B0000000010000000100000001000100010036
:1005C0000100010001000100010001000100000024
:1005D0000100010001000100010001000000000015
:1005E0000000010001000100010000000100010005
:1005F00000000100010001000100010001000100F4
:1006000001000100010001000100010001000100E2
:1006100001000100010001000100010001000100D2
:1006200001000100010001000100010000000100C3
:1006300001000100010001000100010001000100B2
:1006400001000100010000000100000001000000A5
:100650000100010001000100010001000100010092
:100660000100010000000100010001000100010083
:100670000100000000000000010001000100010075
:100680000000010001000000010001000100010064
:100690000100010001000100010001000100010052
:1006A0000100010001000100010001000100010042
:1006B0000100010001000100010001000100010032
:1006C0000100000001000100010001000100010023
:1006D0000100010001000100010001000000010013
:1006E0000000010000000100010001000100010004
:1006F00001000100010001000100000001000100F3
:1007000001000100010001000000000000000100E4
:1007100001000100010000000100010000000100D3
:1007200001000100010001000100010001000100C1
:1007300001000100010001000100010001000100B1
:1007400001000100010001000100010001000100A1
:100750000100010001000100000001000100010092
:100760000100010001000100010001000100010081
:100770000100000001000000010000000100010074
:100780000100010001000100010001000100010061
:100790000000010001000100010001000100000053
:1007A0000000000001000100010001000000010044
:1007B0000100000001000100010001000100010032
:1007C0000100010001000100010001000100010021
:1007D0000100010001000100010001000100010011
:1007E0000100010001000100010001000100000002
:1007F00001000100010001000100010001000100F1
:1008000001000100010001000000010000000100E2
:1008100000000100010001000100010001000100D1
:1008200001000100010000000100010001000100C1
:1008300001000100000000000000010001000100B3
:1008400001000000010001000000010001000100A2
:100850000100010001000100010001000100010090
:100860000100010001000100010001000100010080
:100870000100010001000100010001000100010070
:100880000100010000000100010001000100010061
:100890000100010001000100010001000100000051
:1008A0000100000001000000010001000100010042
:1008B0000100010001000100010001000000010031
:1008C0000100010001000100010000000000000023
:1008D0000100010001000100000001000100000012
:1008E0000100010001000100010001000100010000
:1008F00001000100010001000100010001000100F0
:1009000001000100010001000100010001000100DF
:1009100001000100010001000100000001000100D0
:1009200001000100010001000100010001000100BF
:1009300001000100000001000000010000000100B2
:10094000010001000100010001000100010001009F
:100950000100000001000100010001000100010090
:100960000000000000000100010001000100000083
:100970000100010000000100010001000100010070
:10098000010001000100010001000100010001005F
:10099000010001000100010001000100010001004F
:1009A000010001000100010001000100010001003F
:1009B0000000010001000100010001000100010030
:1009C0000100010001000100010000000100000021
:1009D0000100000001000100010001000100010010
:1009E0000100010001000100000001000100010000
:1009F00001000100010000000000000001000100F2
:100A000001000100000001000100000064321464D4
:100A10003214783C1E1E140A05000000000101017A
:100A20000202030405050607090A0B0C0E0F11123A
:100A3000141517191B1D1F212325282A2C2F31348B
:100A400036393B3E414346494C4F5255585A5D61F9
:100A500064676A6D707376797C7F8386898C8F92E8
:100A600095989B9EA2A5A7AAADB0B3B6B9BCBEC1CE
:100A7000C4C6C9CBCED0D3D5D7DADCDEE0E2E4E61B
:100A8000E8EAEBEDEEF0F1F3F4F5F6F8F9FAFAFB3B
:100A9000FCFDFDFEFEFEFFFFFFFFFFFFFFFEFEFE73
:100AA000FDFDFCFBFAFAF9F8F6F5F4F3F1F0EEEDE2
:100AB000EBEAE8E6E4E2E0DEDCDAD7D5D3D0CECB71
:100AC000C9C6C4C1BEBCB9B6B3B0ADAAA7A5A29EE3
:100AD0009B9895928F8C898683807C797673706DD4
:100AE0006A6764615D5A5855524F4C494643413ECE
:100AF0003B393634312F2C2A282523211F1D1B1961
:100B000017151412110F0E0C0B0A09070605050420
:100B100003020201010100000000000000000101C9
:100B200001010101010101020202020202020202AC
:100B3000030303030303030304040404040405057B
:100B4000050505060606060607070707080808083C
:100B50000909090A0A0A0A0B0B0B0C0C0C0D0D0DE6
:100B60000E0E0F0F0F101011111112121313141477
:100B7000151516161717181819191A1A1B1C1C1DEB
:100B80001D1E1F1F20202122222324252526272742
:100B900028292A2B2B2C2D2E2F2F30313233343570
:100BA00036363738393A3B3C3D3E3F40414243447C
:100BB000464748494A4B4C4D4F5051525355565752
:100BC000585A5B5C5E5F606263646667696A6C6DFD
:100BD0006E707173747678797B7C7E808183848675
:100BE000888A8B8D8F91929496989A9B9D9FA1A3B2
:100BF000A5A7A9ABADAFB1B3B5B7B9BBBDBFC1C4B4
:100C0000C6C8CACCCFD1D3D6D8DADCDFE1E4E6E877
:100C1000EBEDF0F2F5F7FAFCFF12036B00650079DB
:100C20000062006F00610072006400000016037132
:100C3000006D006B006200750069006C0064006567
:100C400000720000000403090409026D00040100A1
:100C5000A0FA0904000001030101000921110100AB
:100C6000012240000705810308000A090401000170
:100C700003010200092111010001224D0007058234
:100C80000308000A09040200010300000009211101
:100C90000100012236000705830308000A09040346
:100CA00000010300000009211101000122390007A1
:100CB0000584032000011201100100000008EDFE70
:100CC000606001000102000105010906A10105079C
:100CD00019E029E71500250195087501810205082D
:100CE0001901290595057501910295017503910179
:100CF0000507190029F71500250195F875018102EE
:100D0000C005010980A10185021601002603001A11
:100D100081002A8300751095018100C0050C09012E
:100D2000A1018503160100269C021A01002A9C02DB
:100D3000751095018100C005010902A1010901A1F9
:100D40000005091901290515002501950575018181
:100D500002950175038101050109300931158125CD
:100D60007F95027508810609381581257F950175E3
:100D7000088106050C0A38021581257F9501750842
:100D80008106C0C005010906A101050719E029E790
:100D900015002501950875018102950175088101ED
:100DA000050819012905950575019102950175033D
:100DB00091010507190029FF150026FF009506750A
:100DC000088100C011241FBECFEFDAE0DEBFCDBF27
:100DD00004B603FE27C080916E0290916F02A0912D
:100DE0007002B09171028730904BA740B04BD1F4A4
:100DF00010926E0210926F021092700210927102A5
:100E000014BE84B7877F84BF0FB6F894A8958091ED
:100E10006000886180936000109260000FBEE0E087
:100E2000F8E3099511E0A0E0B1E0EAE9F7E502C0D6
:100E300005900D92AC33B107D9F722E0ACE3B1E0F5
:100E400001C01D92AE36B207E1F70E94C1240C9496
:100E5000962B0C94000090E080E00895089508958A
:100E600081E0089581FF03C0849A8C980895849846
:100E7000FCCF81E008950C9430070E942B162FEFD1
:100E800084E39CE0215080409040E1F700C00000E6
:100E90000C94781EEF92FF920F931F93CF93DF93E2
:100EA0007C01DC010D911C91119780918D018111C4
:100EB00043C012968C918823D1F1C8010E94B01BC7
:100EC000C82F682FC8010E94591BB8018C2F0E949F
:100ED000E008EC01B7010E943B07882309F468C0D1
:100EE000B701CE010E94180B882309F461C0CE33EC
:100EF000B0E7DB0770F4C433E0E7DE0710F5C1307C
:100F0000F0E7DF0709F45CC050F5C115D04709F4DC
:100F10004AC081E080933E0180933F01C701DF9189
:100F2000CF911F910F91FF90EF900C943907C8015A
:100F30000E94871BC82FC9CFC8010E94B01BB801EF
:100F4000C6CFFE01E553F047D70112968C91E930E8
:100F5000F10508F040C0E856F44D0C94432BCE0147
:100F6000825090474397A8F6F70182818823B1F217
:100F70000E94771D811102C00E94511D0E94941D84
:100F800090E090935F0280935E02FE01E350F04791
:100F900080915E028160E231F10508F047C0EF55B3
:100FA000F44D0C94432BF701828181110E943D077F
:100FB00080E0DF91CF911F910F91FF90EF90089506
:100FC000D70112968C91882399F380912502816034
:100FD00080932502EDCF882359F30E94820FE8CF3A
:100FE000882331F30E94780FE3CF882309F30E940E
:100FF000550EDECF8823E1F20E946D0ED9CF8823F3
:10100000B9F20E948C0ED4CF882391F20E94A40ED4
:10101000CFCF882369F20E94BC0ECACF882341F249
:101020000E94D40EC5CF80915E02826080935E02E2
:1010300080915E020E94981D0E942B16B9CF80916C
:101040005E028460F3CF80915E028860EFCF809172
:101050005E028061EBCF80915E028062E7CF80917B
:101060005E028064E3CF80915E028068DFCF809172
:101070005E028C60DBCF80915E028E7FD7CF809145
:101080005E028D7FD3CF80915E028B7FCFCF809128
:101090005E02877FCBCF80915E028F7EC7CF80912B
:1010A0005E028F7DC3CF80915E028F7BBFCF809128
:1010B0005E028F77BBCF80915E02837FB7CF909126
:1010C0005E02892F97FB87F98058B0CF882361F0A3
:1010D00010923E010E94241E90933D0180933C019A
:1010E00082E00E94701364CF80913E0181110FC095
:1010F00080913C0190913D010E94301E883C9105F9
:1011000030F486E20E94451286E20E94211382E0BA
:101110000E9477134DCF882351F010923F010E9417
:10112000241E90933D0180933C0180E2DACF8091B0
:101130003F0181110FC080913C0190913D010E94BF
:10114000301E883C910530F487E20E94451287E208
:101150000E94211380E2DCCF0C94690B279A2F9810
:101160008FEF9FEF90938700809386008AE08093B3
:10117000800089E1809381000C9484220E94AE0853
:101180000C94670B2F9881110AC080918000877F93
:101190008093800010928D0010928C0008958091B1
:1011A00080008860809380008FEF9FEF90938D0088
:1011B00080938C0008950C9432070C94DB080895FA
:1011C000972F70E02FE0929F600D711D1124FB019D
:1011D0009BE4899FE00DF11D1124EE0FFF1FE455E4
:1011E000FF4F859194910895FC01EE0FFF1FE45F7E
:1011F000F54F8591949108950E94E0080E949C0A01
:101200009C01211581E5380708F046C0211590E5BD
:10121000390708F00CC1283E310518F5203E31058C
:10122000C8F5283A310578F4253A310508F097C019
:101230002130310579F1C9010497813A910550F1C6
:1012400030E020E027C02D3B310508F493C0C901F0
:10125000805C91098032910598F70E94F4089C0106
:1012600019C0211580E3380770F4211590E2390781
:1012700008F0D7C02F3F310509F060F4203F310559
:10128000F8F2306507C0211580E4380708F4CCC0B7
:101290003F70306AC9010895211590E73907C8F5F4
:1012A000211580E6380708F0FAC0211594E53907C2
:1012B000F0F4211583E5380708F0D8C0211592E530
:1012C000390708F4CEC0C9018370992741E050E086
:1012D00002C0440F551F8A95E2F72695269580E2B5
:1012E000289F90011124242B352B3C68D3CF211546
:1012F00095E5390708F4CEC0C90195558F3F910592
:1013000011F008F09DCF322F222722273F71306243
:10131000C1CF213380E7380709F4C3C0A0F42033DC
:1013200080E7380748F4203290E7390708F488CF7F
:1013300020523047346DAECF2033304709F080CF94
:1013400020E031EDA7CF223390E7390709F4ACC094
:101350002333304709F074CF20E033ED9BCF253A9B
:10136000310509F4A4C0263A310509F0A3C022E8EA
:1013700030E490CF283A310509F49FC0293A31056D
:1013800009F49EC02A3A310509F49DC02B3A310573
:1013900009F49CC02C3A310509F49BC02B3B310564
:1013A00009F49AC02C3B310509F499C02D3A310556
:1013B00009F498C0203B310509F497C02E3A310555
:1013C00009F496C02F3A310509F495C0213B310547
:1013D00009F494C0223B310509F493C0233B310545
:1013E00009F492C0243B310509F491C0253B310535
:1013F00009F490C0263B310509F48FC0273B310525
:1014000009F48EC0283B310509F48DC0293B310514
:1014100009F48CC02A3B310509F48BC020E034E488
:1014200039CFC9019F7019CF3327306C33CFC90131
:1014300054E0969587955A95E1F78370422F46952B
:101440004695437090E2499FA0011124582B822FAA
:10145000837021E030E002C0220F331F8A95E2F74B
:1014600042CF322F2227216F306A14CFC9018370F7
:10147000992741E050E002C0440F551F8A95E2F7DA
:101480002695269580E2289F90011124242B352B48
:101490003A6800CF322F2227246F306AFBCE3F708C
:1014A00036CF20E030EDF6CE20E032EDF3CE21E86D
:1014B00030E4F0CE23E830E4EDCE22EE34E4EACEA0
:1014C00029EE34E4E7CE2AEE34E4E4CE25EB34E42E
:1014D000E1CE26EB34E4DECE23EB34E4DBCE24EBAA
:1014E00034E4D8CE27EB34E4D5CE2CEC34E4D2CEA1
:1014F0002DEC34E4CFCE23E835E4CCCE2AE835E435
:10150000C9CE22E935E4C6CE24E935E4C3CE21E2D2
:1015100036E4C0CE23E236E4BDCE24E236E4BACED1
:1015200025E236E4B7CE26E236E4B4CE27E236E44E
:10153000B1CE2AE236E4AECE803E910581F1C8F408
:101540008133910509F462C048F48932910509F4A8
:1015500056C08A32910509F460C008958933910517
:10156000B9F082389105A1F08533910509F440C0A6
:101570000895863E910561F138F4823E9105B1F0FF
:10158000833E9105E1F00895873E910551F108955C
:1015900020915E022370D9F080EE90E008952091B2
:1015A0005E0220FF14C089E390E0089520915E025E
:1015B00022FF0DC024FD09C083EE90E00895209124
:1015C0005E0222FD31C024FF02C090E080E0089559
:1015D00020915E0223FFFBCF24FDF7CF87EE90E042
:1015E000089520915E0223FFEECF86EE90E00895ED
:1015F00020915E0225FFEBCF89E290E008952091D3
:101600005E0225FFE4CF85E390E0089520915E021D
:1016100026FFDDCF8AE290E0089520915E0226FF4A
:10162000D6CF81E390E0089582EE90E0089508958A
:101630000F931F93CF938C01FB018281811106C010
:10164000C1E08C2FCF911F910F910895C0914D0152
:10165000C11125C00531104799F70E94170B81E091
:1016600080934D010E94241E90934C0180934B0166
:1016700010924001109242011092410110924401D7
:1016800010924301109246011092450110924801B8
:101690001092470110924A0110924901D2CF8091D5
:1016A0004B0190914C010E94301E883C910540F600
:1016B00080914001E82FF0E0EE0FFF1FEF5BFE4F3F
:1016C000118300838F5F80934001C0E0BACF0C94F8
:1016D0002E070C942F07CF93DF9385B7806885BFC3
:1016E00085B7806885BFA3E2B1E048E251E0C1E080
:1016F000D0E08D91E82FE295EF70F0E061A18F705E
:101700009E0101C0220F8A95EAF7922F90959623A9
:1017100091A382A1822B82A34A175B0751F7A4E110
:10172000B1E061E070E08D91E82FE295EF70F0E0BC
:1017300041A18F709B0101C0220F8A95EAF7922F79
:101740009095942391A382A1822B82A381E0A3325E
:10175000B80749F7109259011092580110924F01A1
:1017600010924E0110925B0110925A011092510199
:101770001092500110925D0110925C011092530181
:101780001092520110925F0110925E011092550169
:101790001092540110926101109260011092570151
:1017A00010925601DF91CF910C94BE084F925F9238
:1017B0007F928F929F92AF92BF92CF92DF92EF92E1
:1017C000FF920F931F93CF93DF939EE4492E91E0F6
:1017D000592E23E2E22E21E0F22E01E010E09924BE
:1017E0009394E201A990B9902E01DE011E921E92FF
:1017F000F70181917F01E82FE295EF70F0E091A170
:101800008F70980101C0220F8A95EAF7892F822BE9
:1018100081A382A1822E8094882182A380EA8A9566
:10182000F1F784E1C82E81E0D82E90E080E0E60157
:1018300079916E01472F42954F7050E0EA0178A0F0
:101840004D915C9111977F70E80102C0CC0FDD1FB4
:101850007A95E2F7BE01672109F072C0B801082E3F
:1018600002C0660F771F0A94E2F7462B572B11969A
:101870005C934E9301968F309105C9F681A1882221
:1018800081A282A1282B22A38D919C91A816B90632
:1018900041F0909262010E94241E90936401809313
:1018A0006301D8E54D16D1E05D0609F09ACF80912D
:1018B0006201882391F180916301909164010E94FB
:1018C000301E069750F180914E0190914F019093F8
:1018D000590180935801809150019091510190934A
:1018E0005B0180935A018091520190915301909332
:1018F0005D0180935C01809154019091550190931A
:101900005F0180935E018091560190915701909301
:10191000610180936001109262010E94AC0881E035
:10192000DF91CF911F910F91FF90EF90DF90CF90BB
:10193000BF90AF909F908F907F905F904F90089551
:1019400070E060E092CFE82FF0E0EE0FFF1FE85A62
:10195000FE4F80819181089508959C01CB016EB165
:10196000542F509556236EB1462B6FB7F894820FC3
:10197000931F2817390711F46FBF0895F90171916A
:101980009F01E8E04EB9000000C077FF5EB9770F15
:10199000000000C000C000C05EB900C0EA9591F729
:1019A000E8CFFC019DB1942B9DB99B01220F331F01
:1019B000620F731FCF010E94AD0C87EC90E001977E
:1019C000F1F700C00000089544E00C94D10CAF92F0
:1019D000BF92CF92DF92EF92FF920F931F93CF931C
:1019E000DF937C01E901842F242F662309F43FC093
:1019F000C42ED12C8FEF90E0861B9109489F800167
:101A0000499F100D1124212F812F9927C81AD90A17
:101A10009CE3A92EB12CC701B5010E941B2BFB0131
:101A2000BC01C69EC001C79E900DD69E900D11248C
:101A3000B5010E941B2BE330F10509F443C080EF90
:101A4000E816F10468F4E130F10591F13297A1F163
:101A50008CE3E816F10440F180E020E040E007C0AC
:101A6000E430F10599F1842F861B3597A9F7E42F0F
:101A7000F0E0E75EF44F4491E22FF0E0E75EF44FD0
:101A80009491E82FF0E0E75EF44FE4914983988366
:101A9000EA83DF91CF911F910F91FF90EF90DF903C
:101AA000CF90BF90AF900895812F262F210FDFCFC9
:101AB000812F242F461BDBCF862F810FE42F412F50
:101AC0002E2FD5CFE42FE61B842FF9CF842F462F5E
:101AD000410FCDCF88E090E00C94562BAB01BC01B8
:101AE00088E090E00C94742BCF93DF9300D000D06B
:101AF000CDB7DEB7E2E5F2E083E0808311828FEFBD
:101B0000828383838091520290915302A091540268
:101B1000B091550289839A83AB83BC83BC01CD010C
:101B20000F900F900F900F90DF91CF910C946E0D4E
:101B300070E060E08AE592E00C94E40CEF92FF9292
:101B40000F931F93CF93DF9300D00F92CDB7DEB7E3
:101B5000182FE92EF62E042F8091520290915302F5
:101B6000A0915402B091550280935602909357026F
:101B7000A0935802B09359028091520280FF1CC07A
:101B80009E012F5F3F4F812F9E2D0E94E70C809179
:101B9000560210FB87F980935602169580915702E2
:101BA0008078182BE0FA17F910935702F092580238
:101BB000009359020E94980D0F900F900F90DF91A3
:101BC000CF911F910F91FF90EF9008950F931F9366
:101BD000CF93DF9300D000D00F92CDB7DEB78983CB
:101BE0009D83062F142F8091520280FF54C0982F9E
:101BF0009E77923091F589819D810E949E0D809102
:101C00005202B981B0FB87F980935202B695809158
:101C100053028078B82B8D8180FBB7F9B0935302C3
:101C200000935402109355028091520290915302F6
:101C3000A0915402B091550289839A83AB83BC83EF
:101C4000BC01CD010F900F900F900F900F90DF917E
:101C5000CF911F910F910C946E0D982F96959F73B5
:101C60002EE3290F2F73243018F410915502C7CF9B
:101C7000965C9F73993018F6881F8827881F90916B
:101C800053029D83990F982B9983AD81A7FBAA27B7
:101C9000A0F9AD83B4CF0F900F900F900F900F90DD
:101CA000DF91CF911F910F910895E2E5F2E020813D
:101CB000221F2227221F30915302432F440F842FCB
:101CC000822B37FB992790F9089668E671E00E940D
:101CD0002F2B438162810C94E60D20915202221F2A
:101CE0002227221F30915302432F440F842F822B2F
:101CF00037FB992790F98830910540F4805A9E4F20
:101D000040915502609154020C94E60D089768E6E4
:101D100071E00E942F2BF4CF60915402683F90F441
:101D2000685F80915202881F8827881F9091530214
:101D3000292F220F97FB992790F940915502822B6A
:101D40000C94E60D6FEFEDCF60915402683090F087
:101D5000685080915202881F8827881F90915302F3
:101D6000292F220F97FB992790F940915502822B3A
:101D70000C94E60D60E0EDCF40915502483F90F4A1
:101D8000485F80915202881F8827881F90915302D4
:101D9000292F220F97FB992790F960915402822BEB
:101DA0000C94E60D4FEFEDCF40915502483090F086
:101DB000485080915202881F8827881F90915302B3
:101DC000292F220F97FB992790F960915402822BBB
:101DD0000C94E60D40E0EDCFCF93DF9300D000D020
:101DE000CDB7DEB79091520290FF47C09178811134
:101DF00032C09260909352028091520290915302AD
:101E0000A0915402B091550289839A83AB83BC831D
:101E1000BC01CD010E946E0D80915202982F9E77D9
:101E2000923009F510927A01881F8827881F9091B7
:101E30005302292F220F97FB992790F940915502C1
:101E400060915402822B0F900F900F900F90DF91B2
:101E5000CF910C94E60D893110F09063CBCF8F7346
:101E6000880F982BC7CF982F9695925C9F739631C9
:101E7000D8F691E090937A01D7CF0F900F900F9002
:101E80000F90DF91CF91089580912502816080931A
:101E9000250281E080937B010E94771D811104C09F
:101EA0000E94511D0E94740D0E946A0D609352029F
:101EB0007093530280935402909355026E7761F4AD
:101EC0000E94740D0E946A0D609352027093530237
:101ED000809354029093550281E080937A0180911F
:101EE000520280FF04C086958F730C94EC0E089507
:101EF0008091520286958F738F5F893108F081E05F
:101F00000C94EC0ECF93DF9300D000D0CDB7DEB7AA
:101F100090915202892F8E7F90FF816080935202B0
:101F20008091520290915302A0915402B0915502B7
:101F300089839A83AB83BC83BC01CD010E946E0D63
:101F40008091520280FF0AC086958F730F900F9088
:101F50000F900F90DF91CF910C94EC0E10927A01BC
:101F60009FEFA0E7B2E09150A040B040E1F700C081
:101F700000000F900F900F900F90DF91CF910C9475
:101F8000980DCF93C82F80917801909179010E948C
:101F9000301EEC2FF0E0EB5EF54FE491E8171906E8
:101FA00009F010F50E94241E909379018093780126
:101FB000E0917701F0E0E75EF54F449180915202A5
:101FC000881F8827881F90915302292F220F97FB83
:101FD000992790F960915402822B0E949E0D809166
:101FE00077018F5F80937701CF910895CF93C82FAA
:101FF00080917501909176010E94301EEC2FF0E0E7
:10200000EE5EF54FE491E817190609F0E8F40E9436
:10201000241E909376018093750140915502609142
:10202000540280917301909174010E949E0D8091E1
:10203000730190917401019668E671E00E941B2B78
:102040009093740180937301CF910895CF93C82F1B
:1020500080917101909172010E94301EEC2FE695E3
:10206000F0E0EE5EF54FE491E817190609F0B8F4D8
:102070000E94241E90937201809371010E94980D1A
:1020800080916F0190917001C0FF0BC0019668E6CE
:1020900071E00E941B2B9093700180936F01CF9190
:1020A00008950197F8CFCF93DF93C82FDFEF80FF1C
:1020B000D1E080916D0190916E010E94301EC69515
:1020C000EC2FF0E0E15FF54FE491E817190609F015
:1020D00088F40E94241E90936E0180936D010E94EB
:1020E000980DD13061F480916C01811106C08FEFA1
:1020F00080936C01DF91CF9108958150F9CF0E94B8
:10210000492BCF93C82F80916A0190916B010E9457
:10211000301EEC2FF0E0E45FF54FE491E81719066C
:1021200009F0B0F40E94241E90936B0180936A0121
:102130000E94980D9091000180916901913071F495
:102140008A3F44F489EF809369018FEF8093000107
:10215000CF910895815080936901FACF87302CF098
:1021600086E08093690181E0F1CF8F5FF4CF8091A9
:102170006701909168010E94301E883E934098F05C
:102180000E94241E909368018093670180916501ED
:1021900090916601019681709927909366018093D2
:1021A00065010C94980D089580917A01882371F14E
:1021B0008091520286958F739EE3980F9F7394309F
:1021C00018F482500C94C10F9AE3980F9F739330C8
:1021D00018F486500C94F60F97E3980F9F7396307F
:1021E00018F489500C94261091E3980F9F73963041
:1021F00018F48F500C9453109BE2980F9F739330F8
:1022000018F485510C9481100C94B7100895909394
:102210008101809380010895E0918001F091810116
:10222000309721F00190F081E02D099480E008952D
:10223000E0918001F0918101309721F00280F381DB
:10224000E02D09940895E0918001F091810130978B
:1022500021F00480F581E02D0994089520917E01FC
:1022600030917F012817390771F090937F01809397
:102270007E01E0918001F0918101309721F006808C
:10228000F781E02D0994089520917C0130917D0122
:102290002817390771F090937D0180937C01E091BC
:1022A0008001F0918101309721F00084F185E02DCB
:1022B0000994089508950C945A110E941B1E0E94BF
:1022C0006B0B0E94E51E0E9484220C94440F5F92C7
:1022D0006F927F928F929F92AF92BF92CF92DF9236
:1022E000EF92FF920F931F93CF93DF9300D000D014
:1022F0000F92CDB7DEB70E94D60B93E8A92E91E0DE
:10230000B92E10E000E088248394912C502E802F69
:102310000E94A30C7C01F501C190D1905F01C81609
:10232000D90609F45DC08091250281FD0E94AC0CA4
:1023300090E080E0CE24DF243401082E02C0660C39
:10234000771C0A94E2F7960126213721232B09F402
:1023500042C089835A82E620F72081E0EF2809F401
:1023600080E08B830E94241E8160782F9D838C8364
:1023700049815A816B818D810E941C12000F111FAF
:10238000F801ED57FE4F8081918168267926718290
:1023900060820E9492210E940C1190918201891703
:1023A000B1F10E940C11809382010F900F900F9059
:1023B0000F900F90DF91CF911F910F91FF90EF90B1
:1023C000DF90CF90BF90AF909F908F907F906F9055
:1023D0005F900C94DD0801968F30910509F0ACCF29
:1023E0000F5F1F4F0530110509F090CF8FEF8983E4
:1023F0008A831B820E94241E8160782F9D838C8398
:1024000049815A816B818D810E941C12C2CF0F902D
:102410000F900F900F900F90DF91CF911F910F9120
:10242000FF90EF90DF90CF90BF90AF909F908F90F4
:102430007F906F905F900895CF93DF93CDB7DEB715
:102440002B970FB6F894DEBF0FBECDBF4F835887D2
:1024500069877A878B871E8285E0FE013796DE01C9
:10246000119601900D928A95E1F749815A816B810D
:102470007C818D819E812B960FB6F894DEBF0FBEB6
:10248000CDBFDF91CF910C94B318882309F4D8C045
:10249000823871F40E940C1181FDD2C089E30E9440
:1024A000581C0E94221D89E30E94951C0C94221D39
:1024B000833859F40E940C1180FDC2C083E50E944C
:1024C000581C0E94221D83E5EFCF843859F40E94E6
:1024D0000C1182FDB5C087E40E94581C0E94221D89
:1024E00087E4E2CF9CEF980F913A18F40E94581CB1
:1024F000DDCF90E2980F983050F4877091E001C0E2
:10250000990F8A95EAF7892F0E94D91CCFCF9BE5B6
:10251000980F933070F4853A31F0863A39F083E8B9
:1025200090E00C942E1181E890E0FBCF82E890E0DF
:10253000F8CF98E5980F953108F082C0883A09F4F1
:1025400040C0893A09F440C08A3A09F440C08B3A45
:1025500009F440C08C3A09F440C08B3B09F440C0F8
:102560008C3B09F440C08D3A09F440C0803B09F42B
:1025700040C08E3A09F440C08F3A09F440C0813B14
:1025800009F440C0823B09F440C0833B09F440C0D9
:10259000843B09F440C0853B09F440C0863B09F404
:1025A00040C0873B09F440C0883B09F440C0893BE8
:1025B00009F440C08A3B09F440C090E080E00C94EC
:1025C000441182EE90E0FBCF89EE90E0F8CF8AEEE6
:1025D00090E0F5CF85EB90E0F2CF86EB90E0EFCF87
:1025E00083EB90E0ECCF84EB90E0E9CF87EB90E0D9
:1025F000E6CF8CEC90E0E3CF8DEC90E0E0CF83E889
:1026000091E0DDCF8AE891E0DACF82E991E0D7CF9F
:1026100084E991E0D4CF81E292E0D1CF83E292E0ED
:10262000CECF84E292E0CBCF85E292E0C8CF86E2C3
:1026300092E0C5CF87E292E0C2CF8AE292E0BFCFBC
:102640000895882309F44BC0823871F40E940C115C
:1026500081FF45C089E30E94581C0E94221D89E326
:102660000E94951C0C94221D833859F40E940C1171
:1026700080FF35C083E50E94581C0E94221D83E51F
:10268000EFCF843859F40E940C1182FF28C087E4F0
:102690000E94581C0E94221D87E4E2CF9CEF980FF5
:1026A000913AF0F290E2980F983050F4877091E0F0
:1026B00001C0990F8A95EAF7892F0E94DF1CD2CFBB
:1026C0009BE5980F933020F490E080E00C942E115D
:1026D000885A853120F490E080E00C9444110895EC
:1026E000882321F00E94D91C0C94221D0895882370
:1026F00021F00E94DF1C0C94221D08958F929F925E
:10270000AF92BF92DF92EF92FF920F931F93CF93FE
:10271000DF9300D000D00F92CDB7DEB77C016D8380
:102720007983FC01058102950F70128111110E94BD
:10273000F81C0E94511CD82E882371F01123A1F09F
:102740008D81805E883080F082E00E943B1C0E9478
:10275000511C91E0D82ED926E981E295EF70F0E086
:10276000ED54F44D0C94432BD12CF6CF09810F700E
:10277000F981F07F11F00295007F1123B1F0002361
:1027800061F08D81805E883018F02D81211109C0A3
:10279000802F0E94D91C0E94221D8D810E9445120B
:1027A00015C0802F0E94EA1CF6CF8D810E94211354
:1027B000002361F08D81805E883018F03D813111F9
:1027C00029C0802F0E94DF1C0E94221DDD2009F4F9
:1027D000F3C10E942E1C80FDEFC1F70112820E94FE
:1027E000281C0E94711AC7010E94ED150E94281C26
:1027F0000F900F900F900F900F90DF91CF911F913E
:102800000F91FF90EF90DF90BF90AF909F908F90CF
:102810000C94931A802F0E94F01CD6CF49814F70E0
:10282000B42E5981507F503219F0B29480EFB82203
:102830008D81882369F0813029F1112369F100230A
:1028400059F0F701858180FFA8CF8F70858304C080
:10285000112361F0011104C08B2D0E947013B6CFBB
:102860008B2D0130D1F70E940C1DB0CF011106C095
:102870000E940F1D8B2D0E947713A8CF013009F401
:10288000A5CFF6CF112321F0063008F09FCFE4CF7B
:10289000053008F09BCFEECF002361F38D810E94BD
:1028A000211394CF898186958695837069F0813054
:1028B00009F08CCF8D8199819370111102C090E045
:1028C00080E00E94441182CF8D8199819370111113
:1028D00002C090E080E00E942E1178CF8D811123FC
:1028E00029F00E94A0200E94872170CF0E94082119
:1028F000FACF8981837009F05FC0111167CF2D81F4
:10290000229526952770220F220F8D818F7090E0DF
:10291000B0E0A0E04C015D01022E04C0880C991CBF
:10292000AA1CBB1C0A94D2F7FD8160E070E0CB01C9
:10293000F4FF0FC06FE070E080E090E004C0660F2D
:10294000771F881F991F2A95D2F7609570958095FB
:10295000909529812695269523702D832230B1F0FC
:10296000233019F19B01AC01282939294A295B2917
:1029700029833A834B835C833D8169817A818B8192
:102980009C813130B1F00E94FE1920CF9B01AC0137
:10299000282939294A295B2929833A834B835C8377
:1029A000CA01B9010E94281A11CF0E94FE19C5015F
:1029B000B4010E94D4190ACF8695112311F08981A0
:1029C0008170882309F402CF2D81229526952770E6
:1029D000220F220F8D818F7090E0B0E0A0E04C01BB
:1029E0005D01022E04C0880C991CAA1CBB1C0A9411
:1029F000D2F73D8160E070E0CB0134FF0FC06FE0A3
:102A000070E080E090E004C0660F771F881F991F78
:102A10002A95D2F760957095809590954981469555
:102A2000469543704D834230B1F0433019F19B011C
:102A3000AC01282939294A295B2929833A834B8308
:102A40005C833D8169817A818B819C813130B1F0D9
:102A50000E94041BBBCE9B01AC01282939294A29BD
:102A60005B2929833A834B835C83CA01B9010E94A5
:102A70002E1BACCE0E94041BC501B4010E94DA1AC1
:102A8000A5CE3D81323F09F447C080F4303F79F153
:102A9000313FD9F1832F805E8031D0F0112309F4CA
:102AA00056C001117ACE89818F7133C04D81433F69
:102AB000D1F1443F99F7112309F43FC089818F7107
:102AC00089830E94711A63E089810E94321C7ECE44
:102AD0005D815F705D8389818F71112321F00E9478
:102AE000711A8D81BACE0E94931A8D81C4CE1123A2
:102AF00041F0053008F06ACE89818F710E94B81AC2
:102B000065CE063008F062CEF7CF89818F71112330
:102B100039F00E94711A5ACE89818F711123C9F33D
:102B20000E94931A53CE112329F089818F710E943C
:102B30005C1A4CCE0E94521A49CE81E00E943B1C86
:102B4000023008F443CE82E00E943B1C3FCE0111CC
:102B5000A5CE89818F71E4CF49814F706D81C70106
:102B60000E942B070E944D1931CE11112FCEE98101
:102B7000EF70E983E23099F028F4E1110DC00E9472
:102B8000962224CEF981F33069F0F43009F01ECE9C
:102B90008D810E94ED221ACE0E94A22217CE0E94A1
:102BA000BB2214CE0E94CF2211CE49814F706D817D
:102BB000C7010E94DF080ACE0F900F900F900F9070
:102BC0000F90DF91CF911F910F91FF90EF90DF90C9
:102BD000BF90AF909F908F9008950F931F93CF93C6
:102BE000DF93EC018B819C81892B29F0888199816D
:102BF00089238F3F29F4DF91CF911F910F91089581
:102C0000CE010E944A078823B1F3688179818A81C5
:102C10000E94FE1B8C010E94581B0E94C919B8011A
:102C2000CE01DF91CF911F910F910C947E130E94E2
:102C3000F81C0E94091D0E94CB1C0E94221D0E94AC
:102C400078220E94872190E080E00E942E1190E07F
:102C500080E00C9444110E94E71C0C9417160E940B
:102C6000F21B282F892F82958F70903C80F48A3038
:102C7000B0F4843020F4823090F480E008958630FF
:102C8000E1F781E0203E88F0213FB9F70EC08C309B
:102C900011F08F3091F793FB882780F9089581E038
:102CA000203F39F018F4203E40F70895243F29F7DB
:102CB000FCCF0895CF93DF9300D000D00F92CDB713
:102CC000DEB70F900F900F900F900F90DF91CF9184
:102CD0000895CF93DF9300D000D000D0CDB7DEB7FA
:102CE00026960FB6F894DEBF0FBECDBFDF91CF9111
:102CF00008951F93CF93DF93E0918E0116E08091AA
:102D00008F018E1304C0DF91CF911F910895CE2FB4
:102D1000D0E01E9FF0011124E057FE4F4081518109
:102D200062817381848195810E946916FE013196CA
:102D3000E770E5CF4091C0015091C1016091C2019F
:102D40007091C3018091C4019091C5010C946916E2
:102D50001F93CF93DF938091C501807FC1F4809151
:102D6000C2018823A1F080918E01C0918F016091F2
:102D7000C0017091C1014091C3015091C401D62F8F
:102D8000D723DA01A095B09516E0C81304C0DF91EF
:102D9000CF911F91089590E04115510511F0DF3F4B
:102DA00031F401968770F1CF2A0F3B1F17C0189F8F
:102DB000F001199FF00D1124E057FE4F21812713D8
:102DC000F0CF20812613EDCF22812111EACF23817C
:102DD00034812417350740F3241B350B283C31057B
:102DE00000F72091C5012F7020612093C50126E0D6
:102DF000289FF001299FF00D1124EB56FE4F808192
:102E00008F708061808380EC91E00E94ED15DF91EE
:102E1000CF911F910C9479169F92AF92BF92CF924F
:102E2000DF92EF92FF920F931F93CF93DF93CDB773
:102E3000DEB72B970FB6F894DEBF0FBECDBF8C0167
:102E400085E0F801DE01179601900D928A95E1F771
:102E5000D8014C9111965C9111971296EC901297B3
:102E60008091C3019091C401009709F46BC1209136
:102E7000C0013091C101632F62236F3F09F462C129
:102E80001396CD90DC909090C201992009F4F8C07F
:102E9000C816D90608F43FC0F601E81BF90BCF01AC
:102EA000FF24F394883C910508F0F12C80ECA82EC7
:102EB00081E0B82E8091C501982F907FFF2009F402
:102EC000B7C0911180C0FE2C35132AC0241328C02E
:102ED000E11026C08F7080618093C5010E949A1610
:102EE000C5010E94ED158091C501D80115968C93FE
:102EF0008F2D2B960FB6F894DEBF0FBECDBFDF919E
:102F0000CF911F910F91FF90EF90DF90CF90BF90E6
:102F1000AF909F900895809590958C0D9D1DC0CF8A
:102F2000CD2829F0842F85238F3F09F019C180E037
:102F3000B82FB170DB2EE0918E0120918F0136E029
:102F400080FD1CC0EE20A1F28091C50181608093BC
:102F5000C501F12CCDCF8E2F90E03E9FF0011124C2
:102F6000E057FE4F6181651306C06081641303C0A2
:102F700062816E11E7CFFC013196E770E213EBCF6F
:102F80004F8358878F8198850E94F21B292F2295A5
:102F90002F70903260F0225F2F70223078F49F7093
:102FA00051F0F8019581907F31F4D12C0AC09F70C7
:102FB00011F08823D1F3805E8830B8F3C8010E94F5
:102FC000ED15FD2C95CF351306C0241304C0D80190
:102FD000EE2009F47BC04F8358878F8198850E942B
:102FE0002F16882309F4B8C0EE2009F4B5C08091EB
:102FF000C501803270F02091C0013091C1013A8347
:1030000029831B82DD82CC828E83CE0101960E94B1
:10301000ED1586E0F801A0ECB1E001900D928A95E3
:10302000E1F70E94A8160E949A16FF24F39460CF3D
:10303000911113C07C2DDB86CA866E2D8B850E9474
:103040005A1680EC91E00E94ED1586E0F501119290
:103050008A95E9F70E949A164BCF3513BCCF2413FB
:10306000BACFE110B8CFD80115968C93C8010E9451
:10307000ED1586E0F50111928A95E9F7F92C38CF24
:10308000C816D90688F1B601681B790BCB01F12C63
:10309000883C910508F047C0FE2CEE2009F45CC086
:1030A000351330C024132EC08091C50180FD21C08E
:1030B000982F907FF1F0D80115968C931597903F3B
:1030C00039F0982F907F905F8F70892B15968C9395
:1030D000C8010E94ED1586E0F801A0ECB1E0019076
:1030E0000D928A95E1F7B6CF809590958C0D9D1D38
:1030F000CECF86E0F801A0ECB1E001900D928A9568
:10310000E1F7F6CE4F8358878F8198850E942F165E
:1031100081117FCF8091C50181608093C501C80175
:103120000E94ED15E5CE7C2DDB86CA866E2D8B8543
:103130000E945A1686E0E0ECF1E0DF011D928A95CC
:10314000E9F788CFEE2041F04F8358878F8198852B
:103150000E942F1681115DCFC8010E94ED1565CF29
:1031600081E08E25E5CE1F93CF93DF93CDB7DEB7F9
:103170002C970FB6F894DEBF0FBECDBF4F83588794
:1031800069877A878B879C87CE0107960E940C17E8
:10319000882369F08A859B85892B39F04F81588572
:1031A000842F85238F3F09F071C016E05FC086E051
:1031B000FE013796DE01119601900D928A95E1F796
:1031C0008A859B85892B89F388859F8189238F3FF9
:1031D00061F320918F0130E0C90101968770992732
:1031E00040918E014817190671F40E942B16109217
:1031F0008F0110928E0186E0E0ECF1E0DF011D927C
:103200008A95E9F7D2CF96E0929FD001939FB00DB7
:103210001124A057BE4FFE01319601900D929A9550
:10322000E1F780938F010E947916BFCF819FC00183
:10323000112480579E4F0E940C178823E9F0E091DB
:103240008E011E9FF0011124E057FE4F40815181F5
:1032500062817381848195810E94691680918E01BB
:1032600090E001968770992780938E0180918E015E
:1032700090918F018913DACF2C960FB6F894DEBFA8
:103280000FBECDBFDF91CF911F91089569857A85DB
:103290008B859C850E94691688CFEF92FF920F93D1
:1032A0001F93CF93DF938C01892B89F0F12CEE24AF
:1032B000E394E8012196F8018491843709F457C01A
:1032C000A0F4823009F43EC048F48130D1F0DF919F
:1032D000CF911F910F91FF90EF9008959CEF980F61
:1032E0009037A8F70E9445120AC0853709F44CC0F0
:1032F0009CE7980F903758F78F770E9421138E0123
:1033000016C00E5F1F4FFE01849190E2980F983017
:1033100060F48770FE2D01C0FF0F8A95EAF78F2FAA
:103320000E94FB1C0E94221D02C00E9445128F2D8C
:10333000815008F4BECFEFE9FFE03197F1F700C00C
:103340000000F6CF0E5F1F4FFE01849190E2980FB0
:10335000983050F48770FE2D01C0FF0F8A95EAF770
:103360008F2F0E94011DDECF0E942113E0CF0E5F40
:103370001F4FFE01C491C150D0F28FE99FE0019729
:10338000F1F700C00000F7CF0E5F1F4FFE01F49071
:10339000CECF08956093FC017093FD018093FE01F0
:1033A0009093FF010C941716CF93DF9300D000D0B9
:1033B000CDB7DEB769837A838B839C838091FC01D0
:1033C0009091FD01A091FE01B091FF0129813A8108
:1033D0004B815C81822B932BA42BB52B8093FC011A
:1033E0009093FD01A093FE01B093FF010F900F9009
:1033F0000F900F90DF91CF910C941716CF93DF931E
:1034000000D000D0CDB7DEB769837A838B839C83ED
:103410008091FC019091FD01A091FE01B091FF010E
:1034200029813A814B815C8182239323A423B52394
:103430008093FC019093FD01A093FE01B093FF01E6
:103440000F900F900F900F90DF91CF910C94171663
:10345000CF93DF9300D000D0CDB7DEB769837A83F6
:103460008B839C838091FC019091FD01A091FE01D2
:10347000B091FF0129813A814B815C81822793279A
:10348000A427B5278093FC019093FD01A093FE0132
:10349000B093FF010F900F900F900F90DF91CF919D
:1034A0000C9417161092F8011092F9011092FA017B
:1034B0001092FB010C94171641E050E060E070E0C0
:1034C00004C0440F551F661F771F8A95D2F740939B
:1034D000F8015093F9016093FA017093FB010C9489
:1034E0001716282F81E090E0A0E0B0E004C0880F1C
:1034F000991FAA1FBB1F2A95D2F74091F80150913E
:10350000F9016091FA017091FB01842B952BA62B98
:10351000B72B8093F8019093F901A093FA01B0932F
:10352000FB010C94171641E050E060E070E004C02D
:10353000440F551F661F771F8A95D2F74095509507
:10354000609570958091F8019091F901A091FA0130
:10355000B091FB0184239523A623B7238093F80120
:103560009093F901A093FA01B093FB010C94171604
:10357000282F81E090E0A0E0B0E004C0880F991F00
:10358000AA1FBB1F2A95D2F74091F8015091F9016B
:103590006091FA017091FB0184279527A627B72730
:1035A0008093F8019093F901A093FA01B093FB0185
:1035B0000C941716CF93DF9300D000D0CDB7DEB7B1
:1035C00069837A838B839C838091F8019091F901C0
:1035D000A091FA01B091FB0129813A814B815C8174
:1035E000822B932BA42BB52B8093F8019093F90198
:1035F000A093FA01B093FB010F900F900F900F90E2
:10360000DF91CF910C941716CF93DF9300D000D0A9
:10361000CDB7DEB769837A838B839C838091F80171
:103620009091F901A091FA01B091FB0129813A81B1
:103630004B815C8182239323A423B5238093F801DB
:103640009093F901A093FA01B093FB010F900F90B2
:103650000F900F90DF91CF910C941716CF93DF93BB
:1036600000D000D0CDB7DEB769837A838B839C838B
:103670008091F8019091F901A091FA01B091FB01BC
:1036800029813A814B815C8182279327A427B52722
:103690008093F8019093F901A093FA01B093FB0194
:1036A0000F900F900F900F90DF91CF910C94171601
:1036B0000895E82F2FE0929FE00D11248E2F877040
:1036C00041E001C0440F8A95EAF7E695E695E69554
:1036D00085E0E89FF0011124EA53FE4F30E020E03E
:1036E00070E05191DF011197CB01022E02C0969537
:1036F00087950A94E2F78170819585278423852731
:103700008C932F5F3F4F2530310559F70895E82FEF
:103710002FE0929FE00D11249E2F9770E695E6957D
:10372000E69585E0E89FF0011124EA53FE4F50E052
:1037300040E080E0219130E0092E02C036952795C7
:103740000A94E2F721703327042E01C0220F0A9455
:10375000EAF7822B4F5F5F4F4530510559F70895C7
:10376000BF92CF92DF92EF92FF920F931F93CF936E
:10377000DF938C01C090F801D090F901E090FA013C
:10378000F090FB018091FC019091FD01A091FE0160
:10379000B091FF01C82AD92AEA2AFB2ACFE1D0E05A
:1037A000BC2ED701C6010C2E04C0B695A7959795DF
:1037B00087950A94D2F780FD0EC0219788F7B12C27
:1037C0008B2DDF91CF911F910F91FF90EF90DF90A4
:1037D000CF90BF900895B8018C2F0E94FC080197EC
:1037E00061F3EECFCF93DF93D82FC92F0E94B01B88
:1037F0006D2F7C2FDF91CF910C94FC081F93CF93FA
:10380000DF93162FD72F90918D01992339F0862FB2
:10381000972FDF91CF911F910C94F21B882391F089
:10382000862F972F0E94B01BC82F682F812F9D2FA6
:103830000E94591B612F7D2F8C2FDF91CF911F91FB
:103840000C94FC08862F972F0E94871BC82FF2CF5D
:103850008091000285958595859508958091000257
:103860008770089598E0899F90011124622B6093DE
:1038700000020C94711A9091000280958923809324
:103880000002282F277061F4282F082E000C330B1C
:103890009217130629F08595859585950C94931AB2
:1038A000089590910002977081E009F480E00895F6
:1038B000909113019923E1F090915E0297FF18C057
:1038C000E82FE695E695E695EF3139F12091010173
:1038D00030910201E20FF32FF11D877021E030E0FB
:1038E00001C0220F8A95EAF78181822B8183089596
:1038F0002091010130910201F90132969FEF40E0E1
:103900005191851751F09F3F19F4511101C0942F27
:103910004F5F4E31A9F79F3F09F40895290F311DDC
:1039200097FD3A95F90182830895909113019923A7
:1039300001F190915E0297FF1CC0E82FE695E69595
:10394000E695EF3139F12091010130910201E20F4A
:10395000F32FF11D877021E030E0A90102C0440F70
:10396000551F8A95E2F7CA01809591818923818349
:1039700008952091010130910201F9013296205EF3
:103980003F4F9191891303C0DF0111971C92E217F9
:10399000F307B9F7089581E090E0E0910101F0911B
:1039A0000201E80FF91F1082019680329105A9F7F4
:1039B000089590912402982B909324020895982FB3
:1039C0009095809124028923809324020895109277
:1039D0002402089590912302982B90932302089536
:1039E000982F909580912302892380932302089534
:1039F00010922302089590912202982B9093220214
:103A00000895982F90958091220289238093220215
:103A10000895109222020895809301020895109251
:103A2000010208952091010130910201F9013196BE
:103A3000205E3F4F80E0919191118F5FE217F30775
:103A4000D1F70895E0910101F091020180912402E3
:103A50008083E0910101F091020180819091230225
:103A6000892B8083E0910101F09102018081909186
:103A70002202892B808390910102992361F0E091C9
:103A80000101F09102018081892B80830E94121D27
:103A900081111092010280910101909102010C9418
:103AA00018116DEE7EEF90E080E00E94802B60E0C8
:103AB00082E090E00E94622B60E083E090E00E9450
:103AC000622B60E084E090E00E94622B60E085E081
:103AD00090E00E94622B60E086E090E00E94622B02
:103AE00040E050E0BA0188E090E00C94742B90E044
:103AF00080E00E945C2B9C0181E02D3E3E4F09F04E
:103B000080E0089582E090E00C944E2B682F82E0D4
:103B100090E00C94622B83E090E00C944E2B682F85
:103B200083E090E00C94622B84E090E00C944E2BA8
:103B3000682F84E090E00C94622B86E090E00C9477
:103B40004E2B682F86E090E00C94622B80916502EA
:103B5000843051F11092260288E190E020E40FB603
:103B6000F894A895809360000FBE2093600080E0D9
:103B70000E94C20880E00E94DD0883B7817F8460D4
:103B800083BF83B7816083BF7894889583B78E7F26
:103B900083BF0FB6F894A8958091600088618093E8
:103BA0006000109260000FBE089508950895CF93AD
:103BB0000E94D51D0E94D60B0E94D61DC0E08C2FFE
:103BC0000E94A30C892B31F4CF5FC530C1F780E090
:103BD000CF91089581E0FCCF0E942B160E94842291
:103BE0000E940C110C94DD081F921FB61F92112425
:103BF0008F939F93AF93BF9380912602811113C03F
:103C000080915A0290915B02A0915C02B0915D029A
:103C10004196A11DB11D80935A0290935B02A0931F
:103C20005C02B0935D02BF91AF919F918F911F9005
:103C30001FBE1F90189582E084BD93E095BD9AEF5A
:103C400097BD80936E0008952FB7F89480915A0223
:103C500090915B02A0915C02B0915D022FBF08952C
:103C6000CF92DF92EF92FF929C014FB7F894809130
:103C70005A0290915B02A0915C02B0915D024FBF2D
:103C80006C017D01EE24FF24A90170E060E0C41600
:103C9000D506E606F70638F0821B930BFF90EF90EF
:103CA000DF90CF9008950197F7CF1F921FB61F9214
:103CB00011248F939F93AF93BF9380915A02909159
:103CC0005B02A0915C02B0915D020196A11DB11D45
:103CD00080935A0290935B02A0935C02B0935D02C2
:103CE000BF91AF919F918F911F901FBE1F9018950C
:103CF0000E94F226F8942FEF87EA91E62150804047
:103D00009040E1F700C0000087E090EBDC01809379
:103D10006E0290936F02A0937002B093710288E1DB
:103D20009CE00FB6F894A895809360000FBE909326
:103D30006000FFCFAF92BF92CF92DF92EF92FF92DF
:103D40000F931F93CF93C0E0AA24A394B12CE82E25
:103D5000F12C8C2F0E94A30C6C0110E000E0C50137
:103D6000002E02C0880F991F0A94E2F78C219D2132
:103D7000892B99F0602F7C2F80E00E94E008E816E4
:103D8000F90659F481E0CF911F910F91FF90EF90C8
:103D9000DF90CF90BF90AF9008950F5F1F4F0F300F
:103DA0001105E9F6CF5FC530A1F680E0ECCFCF93E7
:103DB000C82F8CE20E949A1E882321F08C2FCF916D
:103DC0000C949A1E80E0CF910895CF93DF9300D09A
:103DD00000D0CDB7DEB70E94771D811102C00E94CE
:103DE000511D95E6998308C00E94D60B8FE39CE98C
:103DF0000197F1F700C00000A981A150A983A1118A
:103E0000F3CF89E20E94D71E811110C18AE20E947D
:103E1000D71E81110E94511D85E00E94D71E81117D
:103E20000E94781E0E94821D8093250287E00E94D6
:103E3000D71E882371F08BE10E94D71E882309F4D6
:103E4000D1C090912502892F8D7F91FF8260809350
:103E50002502809125020E94861D0E94941D90E0FB
:103E600090935F0280935E0280EE0E94D71E8823AB
:103E700041F090915E02892F8E7F90FF8160809348
:103E80005E0289E30E94D71E882341F090915E0272
:103E9000892F8D7F91FF826080935E0282EE0E9467
:103EA000D71E882341F090915E02892F8B7F92FF6D
:103EB000846080935E0286EE0E94D71E882341F0C4
:103EC00090915E02892F877F93FF886080935E02C6
:103ED00083EE0E94D71E882341F090915E02892FC5
:103EE0008F7E94FF806180935E0285E30E94D71EDF
:103EF000882341F090915E02892F8F7D95FF80622B
:103F000080935E0281E30E94D71E882341F0909146
:103F10005E02892F8F7B96FF806480935E0281E131
:103F20000E94D71E882341F090915E02892F97FB53
:103F300087F9805880935E0280915E020E94981DEE
:103F400087E20E94D71E89838EE10E94D71E8823B4
:103F500019F0B981B260B9838FE10E94D71E88231E
:103F600019F029812460298380E20E94D71E8823CA
:103F700019F039813860398381E20E94D71E882385
:103F800019F049814061498382E20E94D71E88234B
:103F900019F059815062598383E20E94D71E882309
:103FA00019F089818064898384E20E94D71E882366
:103FB000B1F199819068998389810E948F1D39811F
:103FC000232F30E050E040E029833A834B835C8329
:103FD000CA01B9010F900F900F900F90DF91CF9110
:103FE0000C94CA198EE00E94D71E882339F0909154
:103FF0002502892F8B7F92FF846029CF80E10E9468
:10400000D71E90912502882329F0892F877F93FF5F
:1040100088601DCF892F8E7F90FF816018CFA98186
:10402000A111CACF0E948B1D282FCBCF0F900F90CC
:104030000F900F90DF91CF9108958091290280FF1A
:1040400012C06091060185E0689FB001112475954A
:1040500067957595679560387105A8F561157105C7
:10406000A1F1862F089581FF09C06091060185E0C6
:10407000689FB001112475956795EDCF6091060199
:1040800082FD0AC080912A028823D1F09091050117
:1040900060910601891728F085E0689FB00111241E
:1040A000DACF869FB001112485E0869F9001879F1B
:1040B000300D1124692F70E0C9010E942F2BCBCF46
:1040C00065E070E0CECF8FE7089581E0089580919C
:1040D000290280FF0CC06091040170E0759567951E
:1040E000759567956115710549F1862F089581FFD2
:1040F00006C06091040170E075956795F3CF6091FB
:10410000040182FD0BC090912A029923A1F06091D5
:10411000030180910401961738F0682F70E0603831
:10412000710500F38FE70895899FC001112470E0A5
:104130000E942F2BF4CF61E070E0D7CF81E008958B
:10414000803F31F40E941D20819580932D020895B7
:10415000813F19F40E941D20F8CF823F31F40E9464
:104160001D20819580932C020895833F19F40E94AD
:104170001D20F8CF893F29F40E94672080932E02EA
:1041800008958A3F21F40E9467208195F7CF8B3FE5
:1041900031F40E946720819580932F0208958C3F0F
:1041A00019F40E946720F8CF843F31F480912B02EC
:1041B000816080932B020895853F21F480912B022A
:1041C0008260F7CF863F21F480912B028460F1CF8B
:1041D000873F21F480912B028860EBCF883F21F448
:1041E00080912B028061E5CF8D3F31F480912902CF
:1041F00081608093290208958E3F21F480912902E5
:104200008260F7CF8F3FB9F7809129028460F1CFA8
:1042100090912C02803F41F480912D0287FD1092F5
:104220002D02992371F00895813F29F480912D0288
:104230001816ACF3F6CF823F81F497FFF2CF1092BD
:104240002C0280912D0290912E02892B90912F02A9
:10425000892B49F710922A020895833F19F4191601
:1042600074F3DFCF893F39F480912E021816CCF613
:1042700010922E02D6CF8A3F29F480912E0287FF1A
:10428000D0CFF6CF8B3F39F480912F0287FFC9CF73
:1042900010922F02C6CF8C3F29F480912F0218165E
:1042A000BCF3BFCF843F31F480912B028E7F80938B
:1042B0002B02B7CF853F21F480912B028D7FF7CF62
:1042C000863F21F480912B028B7FF1CF873F21F431
:1042D00080912B02877FEBCF883F21F480912B02C6
:1042E0008F7EE5CF8D3F31F4809129028E7F8093C0
:1042F000290297CF8E3F21F4809129028D7FF7CF3D
:104300008F3F09F08ECF809129028B7FF0CF8BE217
:1043100092E00E9423110E94241E90932802809311
:10432000270208951F93CF93DF9300D000D000D0D1
:10433000CDB7DEB780912702909128020E94301EEF
:10434000AC0180912A022091070130E0811106C062
:10435000209108019AE0299F9001112442175307E8
:1043600088F020912C02A0912D02A98310912E0299
:10437000B0912F02BE8321110FC09A2F912B9B2B3E
:1043800009F0B2C026960FB6F894DEBF0FBECDBFBF
:10439000DF91CF911F9108958F3F19F08F5F809328
:1043A0002A02121624F40E941D2080932C02809170
:1043B0002C0287FF05C00E941D20819580932C024E
:1043C0002981121624F40E941D2080932D028091D1
:1043D0002D0287FF05C00E941D20819580932D022C
:1043E00080912C02882309F455C030912D023D8321
:1043F000332309F44FC0282F880F330B440B550B80
:1044000029833A834B835C83CA01B9010E94222A23
:1044100023E333E343E35FE369837A838B839C8302
:1044200069817A818B819C810E94862A69837A8343
:104430008B839C8369817A818B819C810E94EA298C
:1044400060932C028D81082E000C990BAA0BBB0BDC
:1044500089839A83AB83BC83BC01CD010E94222A4D
:1044600023E333E343E35FE369837A838B839C83B2
:1044700069817A818B819C810E94862A69837A83F3
:104480008B839C8369817A818B819C810E94EA293C
:1044900060932D02111624F40E94672080932E024F
:1044A00080912E0287FF05C00E946720819580932E
:1044B0002E029E81191624F40E94672080932F02F9
:1044C00080912F0287FF05C00E946720819580930D
:1044D0002F0226960FB6F894DEBF0FBECDBFDF9138
:1044E000CF911F910C9487218F3F09F057CF68CF50
:1044F00085E0EBE2F2E0DF011D928A95E9F7109288
:104500002A021092290208950E94771D811102C08B
:104510000E94511D0E949D1D982F80936002817002
:1045200090FF02C0892F86950C94C208809160028A
:104530008160809360020E94A11D80916002869537
:104540000C94C20880916002982F9E7F79F082506F
:10455000809360028E7F91E009F490E08091600288
:1045600090FB80F9809360020E94A11D80916002FF
:1045700086950C94C20890916002892F8E7F90FFDF
:104580008160809360020E94A11D90916002892F3A
:10459000817090FF02C0892F86950C94C20880918B
:1045A00060028E5F80936002982F9E7F19F0817069
:1045B00080936002809160028E7F91E009F490E028
:1045C0008091600290FB80F9809360020E94A11D9F
:1045D0008091600286950C94C20890916002292F08
:1045E00026952827220F9170922B909360029E7F30
:1045F00021E009F420E08091600220FB80F98093A3
:1046000060020E94A11D8091600286950C94C208F0
:10461000809150020895CF93DF9300D00F92CDB7D1
:10462000DEB720916502243019F523E029838A83BF
:104630009B832093E9008FEF9091E800815095FDD6
:1046400006C095ED9A95F1F700008111F5CF8091A4
:10465000E80085FF0DC050E040E063E070E0CE016F
:1046600001960E946A258091E8008E778093E80089
:104670000F900F900F90DF91CF910895CF93DF931C
:1046800000D00F92CDB7DEB79C01809165028430D7
:1046900031F582E08983205831093B832A8383E006
:1046A0008093E9008FEF9091E800815095FD06C05E
:1046B00095ED9A95F1F700008111F5CF8091E80012
:1046C00085FF0DC050E040E063E070E0CE01019650
:1046D0000E946A258091E8008E778093E8000F9011
:1046E0000F900F90DF91CF910895209165022430B3
:1046F000F1F422E02093E9002FEF3091E8002150FF
:1047000035FD06C035ED3A95F1F700002111F5CFE2
:104710002091E80025FF0BC050E040E065E070E02C
:104720000E946A258091E8008E778093E8000895C2
:10473000CF93DF93D82FC92F809165028430F1F495
:10474000909113019923E9F090915E0297FF19C0AF
:104750008093E9008FEF9091E800815095FD06C0AD
:1047600095E19A95F1F700008111F5CF8091E8006D
:1047700050E040E060E270E085FD1AC0DF91CF912B
:10478000089581E08093E9008FEF9091E8008150D7
:1047900095FD06C095ED9A95F1F700008111F5CFD2
:1047A0008091E80085FFEACF50E040E068E070E0EB
:1047B0008D2F9C2F0E946A258091E8008E77809330
:1047C000E80080E2ED2FFC2FA0E3B2E001900D9213
:1047D0008A95E1F7D3CF80916402811109C00E94CC
:1047E000F2260E944F278091E20084608093E200CD
:1047F0000895109264020895089508950C94EC1D94
:1048000042E061EC81E00E946E2642E061EC82E0D1
:104810000E946E2642E061EC83E00E946E2642E236
:1048200061EC84E00C946E2680916702893089F1F6
:1048300048F4823009F494C0833009F44FC08130C9
:1048400041F008958A3009F47BC08B3009F461C0CF
:10485000089580916602813A09F03FC08091E80096
:10486000877F8093E80080916A0290916B02892B88
:1048700061F460E280E392E070E00E94B9258091EB
:10488000E8008B778093E800089560E090E080E096
:10489000F3CF80916602813201F580916A02909196
:1048A0006B02009711F00397C1F48091E800877FB5
:1048B0008093E8008091E80082FF0BC08091F100B6
:1048C000809350028091E8008B778093E8000C94ED
:1048D000A226809165028111EDCF08958091660234
:1048E000813AD9F780916A0290916B02892BA9F7DE
:1048F0008091E800877F8093E8008091E80080FF46
:10490000FCCF809113018093F1008091E8008E77B5
:10491000DCCF80916602813201F780916A0290912A
:104920006B02892BD1F68091E800877F8093E800A5
:104930000E94A22680916802809313010C942B168A
:1049400080916602813249F68091E800877F8093EA
:10495000E8000E94A2268091690280935102089586
:1049600080916602813A09F0B8CF8091E800877F94
:104970008093E8008091E80080FFFCCF8091510295
:10498000C2CF84B7877F84BF0FB6F894A895809173
:104990006000886180936000109260000FBE80E824
:1049A00080936100109261000E945B110E94F226C8
:1049B0000E944F278091E20084608093E200789407
:1049C0000E94CF290E945D1189E091E00E940711A9
:1049D00080916502853029F00E9467110E94D410F1
:1049E000F7CF0E94A61D80916302882389F30E945D
:1049F000D71D882369F30E945425EACF9C01DA0170
:104A0000892F992783309105C1F068F48130910591
:104A100009F445C0029761F48DE690E029E43CE09A
:104A20002D933C93089581329105E1F0829739F1FD
:104A300090E080E030E020E0F3CFC90199272130F9
:104A400059F08230910559F0E5E4FCE0892B81F7BB
:104A5000849190E09F01E4CFEDE2FCE0F9CFE9E141
:104A6000FCE0F6CF643020F7E62FF0E0EE0FFF1FFA
:104A7000EC5CFE4F2081318189E090E0D1CF643041
:104A8000B8F670E0FB01EE0FFF1FE45DFE4F2081E2
:104A90003181685D7E4FFB01808190E0C1CF82E172
:104AA00090E026EB3CE0BCCF80E189BD82E189BD8E
:104AB00009B400FEFDCF8091D8008F7D8093D8008F
:104AC0008091E00082608093E0008091E00081FDB1
:104AD000FCCF0895AF92BF92CF92DF92FF920F93D7
:104AE0001F93CF93DF936C01EB018A010E94C126D3
:104AF000F82E811123C00115110539F0F8018081CC
:104B00009181C81BD90BC80ED91EB12CA12C20979E
:104B1000A9F08091E80085FD22C08091E8008E77A1
:104B20008093E80001151105A1F0F80180819181C1
:104B3000A80EB91EB182A08285E0F82E8F2DDF91DC
:104B4000CF911F910F91FF90DF90CF90BF90AF90CA
:104B500008950E94C1268823D1F2F82EEFCFF601E6
:104B600081916F018093F1002197FFEFAF1ABF0A87
:104B7000CECFFC01CB0120916C0230916D02261743
:104B8000370790F0009729F42091E8002E772093C2
:104B9000E80040E0009751F4411108C08091E8001E
:104BA00082FF31C080E00895C901F3CF20916502F2
:104BB0002223A9F12530A9F12091E80023FD2DC081
:104BC0002091E80022FDEACF2091E80020FFE2CF0B
:104BD0003091F3002091F200009719F02830310550
:104BE00058F041E02830310509F040E02091E8001C
:104BF0002E772093E800CECF41914093F1000197AA
:104C00002F5F3F4FE9CF80916502882341F08530C7
:104C100041F08091E80083FFC1CF81E0089582E0F8
:104C2000089583E00895FC01CB0120916C0230913E
:104C30006D022617370790F0009729F42091E800BD
:104C40002E772093E80040E0009751F4411108C00E
:104C50008091E80082FF32C080E00895C901F3CF5F
:104C6000209165022223B1F12530B1F12091E800B5
:104C700023FD2EC02091E80022FDEACF2091E8001C
:104C800020FFE2CF3091F3002091F200009719F05D
:104C90002830310558F041E02830310509F040E076
:104CA0002091E8002E772093E800CECF44914093E6
:104CB000F100319601972F5F3F4FE8CF8091650259
:104CC000882341F0853041F08091E80083FFC0CF18
:104CD00081E0089582E0089583E00895982F973049
:104CE00028F08F708093E90081E008959093E900A7
:104CF000242F762F50E0981731F07091EC0020911E
:104D0000ED005091F00021FD02C09F5FE8CF30918F
:104D1000EB003E7F3093EB003091ED003D7F309310
:104D2000ED003091EB0031603093EB007093EC00BC
:104D30002093ED005093F0002091EE0027FDE5CF89
:104D400080E008958091660287FF13C08091E8009B
:104D500082FF06C08091E8008B778093E80004C052
:104D6000809165028111F2CF0895809165028823B8
:104D7000D9F38091E80080FFF8CF8091E8008E772A
:104D8000ECCF2091E4003091E50095E6A901209157
:104D9000EC00822F817020FF06C08091E80080FF28
:104DA00006C080E008952091E80022FD1AC080919D
:104DB0006502882389F0853089F08091EB0085FDBC
:104DC0000FC02091E4003091E50042175307F9F23B
:104DD0009150E1F684E0089582E0089583E008951B
:104DE00081E008950E9460270E946827E0EEF0E0CD
:104DF000808181608083E8EDF0E080818F7780831F
:104E000019BCA7EDB0E08C918E7F8C9380818F7E52
:104E100080831092640208950F931F93CF93DF93C2
:104E20000E9460270E946827C8EDD0E088818F77B4
:104E3000888388818068888388818F7D888319BC76
:104E40001092650210926102109263021092620247
:104E500000EE10E0F80180818B7F80838881816083
:104E6000888342E060E080E00E946E26E1EEF0E0A0
:104E700080818E7F8083E2EEF0E08081816080839C
:104E8000808188608083F80180818E7F8083888123
:104E900080618883DF91CF911F910F910895E8ED94
:104EA000F0E080818F7E8083E7EDF0E0808181609B
:104EB000808384E082BF81E0809364020C940C279D
:104EC000E8EDF0E080818E7F80831092E20008950B
:104ED0001092DA001092E10008951F920F920FB61F
:104EE0000F9211242F933F934F935F936F937F9370
:104EF0008F939F93AF93BF93EF93FF938091E100C4
:104F000082FF0BC08091E20082FF07C08091E10028
:104F10008B7F8093E1000E94CE298091DA0080FF90
:104F200019C08091D80080FF15C08091DA008E7F73
:104F30008093DA008091D90080FF94C080E189BD20
:104F400082E189BD09B400FEFDCF81E08093650256
:104F50000E94EB238091E10080FF19C08091E20064
:104F600080FF15C08091E2008E7F8093E2008091E7
:104F7000E20080618093E2008091D800806280939B
:104F8000D80019BC85E0809365020E94FD238091C2
:104F9000E10084FF29C08091E20084FF25C080E108
:104FA00089BD82E189BD09B400FEFDCF8091D800A2
:104FB0008F7D8093D8008091E1008F7E8093E10007
:104FC0008091E2008F7E8093E2008091E200816018
:104FD0008093E20080916102882309F449C084E053
:104FE000809365020E94FE238091E10083FF29C027
:104FF0008091E20083FF25C08091E100877F80934C
:10500000E10082E080936502109261028091E100EC
:105010008E7F8093E1008091E2008E7F8093E2009A
:105020008091E20080618093E20042E060E080E0F5
:105030000E946E268091F00088608093F0000E94AC
:10504000FC23FF91EF91BF91AF919F918F917F9141
:105050006F915F914F913F912F910F900FBE0F90E5
:105060001F90189519BC109265020E94F92372CF07
:105070008091E30087FD02C081E0B2CF83E0B0CF32
:105080001F920F920FB60F9211242F933F934F93BD
:105090005F936F937F938F939F93AF93BF93CF93C0
:1050A000DF93EF93FF93D091E900DF708091EC00E4
:1050B000C82FC17080FDC0E81092E9008091F00017
:1050C000877F8093F00078940E9484281092E900F2
:1050D0008091F00088608093F000CD2BCF70C0935A
:1050E000E900FF91EF91DF91CF91BF91AF919F9137
:1050F0008F917F916F915F914F913F912F910F9081
:105100000FBE0F901F9018951F93CF93DF93CDB7CD
:10511000DEB7AA970FB6F894DEBF0FBECDBF86E606
:1051200092E0FC0101962091F100208322E08E366E
:105130009207B9F70E9414248091E80083FF16C1FA
:1051400080916602909167029A3008F00FC1E92FB2
:10515000F0E0ED53F44D0C94432B803881F082380D
:1051600009F004C180916A028F708093E9008091F8
:10517000EB0085FB882780F91092E90006C080913A
:10518000620290916302911182609091E800977F92
:105190009093E8008093F1001092F1008091E80074
:1051A0008E77E0C0882309F4CEC0823009F0DEC0DB
:1051B000809168028111D1C080916A028F7009F4D8
:1051C000D5C08093E9002091EB0020FFC6C093304A
:1051D00031F48091EB0080628093EB00BEC090912F
:1051E000EB0090619093EB0021E030E001C0220FD2
:1051F0008A95EAF72093EA001092EA008091EB008A
:105200008860EACF8111B2C0109168021F77809147
:10521000E3008078812B8093E3008091E800877F12
:105220008093E8000E94A2268091E80080FFFCCFD6
:105230008091E30080688093E30082E0111183E0B5
:105240008093650293C08058823008F08FC08091AF
:105250006802909169028C3D23E09207A1F583E0FA
:105260008A838AE289834FB7F894DE01139620E09F
:105270003EE051E2E32FF0E050935700E49120FF2D
:1052800003C0E295EF703F5FEF708E2F90E0EA3041
:10529000C0F0C7968D939D932F5F243159F74FBF70
:1052A0008091E800877F8093E8006AE270E0CE0199
:1052B00001960E94B9258091E8008B778093E800E1
:1052C00055C0C096E7CFAE014F5F5F4F60916A0255
:1052D0000E94FE24BC01892B09F448C08091E8009B
:1052E000877F8093E80089819A810E941326E3CF0B
:1052F0008038E1F58091E800877F8093E800809115
:1053000061028093F1004ACF811130C09091680210
:10531000923060F58091E800877F8093E800909359
:1053200061020E94A22680916102882311F084E02C
:1053300005C08091E30087FDFACF81E0809365028C
:105340000E94002413C080916802813079F481E0CA
:10535000933009F080E0809363021092E90080911D
:10536000E800877F8093E8000E94A2268091E800F1
:1053700083FF0AC08091E800877F8093E8008091D6
:10538000EB0080628093EB00AA960FB6F894DEBF24
:105390000FBECDBFDF91CF911F9108950895CF9398
:1053A000809165028823A1F0C091E900CF709091AF
:1053B000EC00892F817090FD80E8C82B1092E900E5
:1053C0008091E80083FD0E948428CF70C093E9009B
:1053D000CF9108950E94F1296894B1110C94802A0C
:1053E00008950E94652A88F09F5798F0B92F992751
:1053F000B751B0F0E1F0660F771F881F991F1AF0C0
:10540000BA95C9F714C0B13091F00E947F2AB1E07B
:1054100008950C947F2A672F782F8827B85F39F07A
:10542000B93FCCF3869577956795B395D9F73EF458
:1054300090958095709561957F4F8F4F9F4F089500
:10544000E89409C097FB3EF490958095709561951E
:105450007F4F8F4F9F4F9923A9F0F92F96E9BB27D4
:105460009395F695879577956795B795F111F8CF50
:10547000FAF4BB0F11F460FF1BC06F5F7F4F8F4FBB
:105480009F4F16C0882311F096E911C0772321F0B1
:105490009EE8872F762F05C0662371F096E8862F49
:1054A00070E060E02AF09A95660F771F881FDAF7A0
:1054B000880F9695879597F9089557FD9058440F52
:1054C000551F59F05F3F71F04795880F97FB991F63
:1054D00061F09F3F79F08795089512161306140620
:1054E000551FF2CF4695F1DF08C0161617061806AD
:1054F000991FF1CF86957105610508940895E89488
:10550000BB2766277727CB0197F908950E94992A30
:105510000C940A2B0E94FC2A38F00E94032B20F0E6
:10552000952311F00C94F32A0C94F92A11240C946D
:10553000802A0E945D2A70F3959FC1F3950F50E079
:10554000551F629FF001729FBB27F00DB11D639F35
:10555000AA27F00DB11DAA1F649F6627B00DA11DDB
:10556000661F829F2227B00DA11D621F739FB00D81
:10557000A11D621F839FA00D611D221F749F3327F1
:10558000A00D611D231F849F600D211D822F762F8A
:105590006A2F11249F5750409AF0F1F088234AF067
:1055A000EE0FFF1FBB1F661F771F881F91505040D3
:1055B000A9F79E3F510580F00C94F32A0C94802AA1
:1055C0005F3FE4F3983ED4F3869577956795B7955A
:1055D000F795E7959F5FC1F7FE2B880F911D969574
:1055E000879597F9089597F99F6780E870E060E0E4
:1055F00008959FEF80EC089500240A94161617066C
:1056000018060906089500240A94121613061406B3
:1056100005060895092E0394000C11F4882352F016
:10562000BB0F40F4BF2B11F460FF04C06F5F7F4FCE
:105630008F4F9F4F0895AA1BBB1B51E107C0AA1FA4
:10564000BB1FA617B70710F0A61BB70B881F991F23
:105650005A95A9F780959095BC01CD01089597FBC7
:10566000072E16F4009407D077FD09D00E941B2B5B
:1056700007FC05D03EF4909581959F4F0895709555
:1056800061957F4F0895EE0FFF1F0590F491E02D77
:10569000099481E090E0F8940C94962BF999FECF50
:1056A00092BD81BDF89A992780B50895A6E1B0E032
:1056B00044E050E00C94882BA8E1B0E042E050E0D8
:1056C0000C94882B262FF999FECF92BD81BDF89AB4
:1056D000019700B4021639F01FBA20BD0FB6F89436
:1056E000FA9AF99A0FBE08950396272F0E94632B0A
:1056F0000E94622B252F0E94632B242F0C94632B76
:105700000196272F0E94632B0C94622BDC01CB01A6
:10571000FC01F999FECF06C0F2BDE1BDF89A3196C1
:1057200000B40D9241505040B8F70895F894FFCF5F
:10573000F007F507FA07FF07040809080E086608CE
:105740008B0813081F08230827082B082F08330885
:1057500037083B083F08430847084B084F085308E1
:1057600057085B085F08B613B6130E140E145214D4
:105770006E14E613E6137914E61341154115AC15C2
:10578000B515E613D515AD28D228B629D228B629E5
:0A57900002292329B629782984296B
:10579A00FF02022808140A321E0823982375233EA2
:1057AA00230B2301F0F1C66766369431F735349737
:1057BA009633329091929395404D3639840D370D38
:0C57CA00010DC80C5B0C740C8D0CA60CBF
:00000001FF
